:020000041000EA
:10000000002008205D0100101301001015010010F0
:100010001101001011010010110100101101001058
:100020001101001011010010110100101701001042
:100030001101001011010010190100101B01001026
:100040001D0100101D0100101D0100101D010010F8
:100050001D0100101D0100101D0100101D010010E8
:100060001D0100101D0100101D0100101D010010D8
:100070001D0100101D0100101D0100101D010010C8
:100080001D0100101D0100101D0100101D010010B8
:100090001D0100101D0100101D0100101D010010A8
:1000A0001D0100101D0100101D0100101D01001098
:1000B0001D0100101D0100101D0100101D01001088
:1000C0001D0100101D0100101D0100101D01001078
:1000D0001D0100101D0100101D0100101D01001068
:1000E0001D0100101D0100101D0100101D01001058
:1000F0001D0100101D0100101D0100101D01001048
:100100001D0100101D0100101D0100101D01001037
:1001100000BE00BE00BE00BE00BE00BEEFF3058004
:10012000103800BEF2EB8871642406108824061093
:10013000A801001090A31AE7D3DEFFFF42012110AF
:10014000FF01000080580600793512AB4FF0000027
:100150002049086006C881F3088810474FF05040D6
:10016000006810B14FF00000F2E70FA40ECC002998
:1001700002D000F015F8F9E71749184A002000E00E
:1001800001C19142FCD1002080F30A8814498847BC
:10019000144988471449884700BEFDE701C901C2D8
:1001A0009A42FBD3704700BF88240610100100203C
:1001B00040360020B8590610000008200000082032
:1001C000B859061000100820001008200000000098
:1001D0007047000008ED00E040360020685800201D
:1001E000F97600103D020010BD760010F8B500BF92
:1001F000064B0749C91A891048BF0131491003D07D
:10020000044B0BB101481847704700BF403600202F
:10021000403600200000000008B5054B1BB1054921
:100220000548AFF30080BDE80840FFF7E1BF00BF1D
:100230000000000014570020641605102DE9F04F4F
:10024000D5B007F0BFFB022000F08AF902E064207D
:1002500004F0F6FE07F050FF0028F8D0AD4807F094
:100260003BFC0124052504200322DFF8B4A2CDE9DC
:100270000020CDE90254224602230021CDE9045A90
:1002800008A800F023FA4FF000087822DFF89492D3
:1002900020AFC8233CA9ADF8F8203EAE08AA3846E6
:1002A000CDE900893D943C9600F008FB3CA823F082
:1002B0004FF80B2302220A21CDE902320923CDE9AE
:1002C000045A7925CDE9003107220823062114A814
:1002D00000F0FCF9C82314AA3D943CA98E4CCDE94A
:1002E00000892EA8ADF8F8503C9600F0E7FA3CA83B
:1002F00023F02EF82568A3682EAA5B1B072B3C97DA
:100300003D9200F2D380082005F0B2FD0546226838
:100310003CAB03CB2860696022B1A1681046891A02
:1003200005F0AEFD25600835C4E901557A493CA8C1
:1003300003F0DEFF3CA803F0A3FD784807F0CCFBF8
:100340004F9DBDB12C46636A2D6804F11C0113B1A9
:10035000032208469847606804F10C03984203D0D2
:10036000E168013105F08CFD3021204605F088FD63
:10037000002DE7D14E9A00214D98920042F0D6FF11
:1003800000234D98CDE94F3353AB98424E9902D09C
:10039000890005F075FD489D85B12C46606804F123
:1003A0000C0398422D6803D0E168013105F068FD27
:1003B0002421204605F064FD002DEED1479A00214E
:1003C0004698920042F0B2FF00234698CDE94833A8
:1003D0004CAB9842479902D0890005F051FDDDE908
:1003E000424B419BDDF814811E1DB045DDF8F8A09D
:1003F000DDF8009113D9CDE9063456F8044B04F525
:100400000075A368002B4BD02146204603221034F0
:100410009847AC42F5D1B045EFD8DDE90634434505
:1004200061D0CA451CD0DAF808305BB1514650465D
:1004300003220AF1100A9847D14511D0DAF80830A2
:10044000002BF3D10AF1100AD145ECD108E0DBF81A
:1004500008301BB103225946584698470BF1100B40
:100460005C45F4D13C9888B1459D419C0435AC4233
:1004700008D254F8040B4FF4007105F001FDA542B9
:10048000F7D83C983D99890005F0FAFC2EA822F097
:100490005FFF384622F05CFF002055B0BDE8F08FCA
:1004A0001034AC42ADD1B045A7D8B6E763685E1B47
:1004B000072E0CD8042E37DD284632463CA946F0DC
:1004C00017F86368C6F108052B4463602EE73CAB60
:1004D00003CB28606960636805F108029A423FF423
:1004E00025AF626022E7A245BCD0DAF808305BB1E4
:1004F0005146504603220AF1100A98475445B1D09C
:10050000DAF80830002BF3D10AF1100A5445ECD187
:10051000A8E700BF68160510F83700208016051000
:1005200020A10700000059403CAA02EB060107D0B9
:10053000C6F1080518462A4645F0DAFF0346C3E728
:10054000925963682F6035461A60BDE7002000218C
:100550000022024BC3E900019A607047F83700207F
:10056000014B1860704700BF142500200EB40C4BDF
:1005700000B51B6882B083420DDB032896BF094B90
:10058000094953F82010094807F026FB04A90398ED
:10059000019107F0BFFA02B05DF804EB03B07047B9
:1005A000142500202C3605102417051050180510AE
:1005B000837981F0010242EC4030C172704700BF84
:1005C000C07A70470C4A01EB410303EB020C10B5F3
:1005D00090F807E09CF8024044EC40E09CF801E011
:1005E00090F808C04EEC40C090F809C0D35C43ECD2
:1005F00040C080F8201010BD8836051090F820000B
:10060000704700BF037941EC40300173704700BF71
:10061000C161704701767047C0697047007E7047BE
:100620004162704700238362704700BF806A704751
:1006300081627047406A003818BF0120704700BFD0
:10064000704700BF38B5044604F0ECFD636A0BB98F
:10065000184638BD22696569821A61EB050CA57AD6
:100660006DB9E3699A427CF1000C06D301236279EB
:10067000A37243EC4020C4E90401012038BD94F882
:1006800018E0002572457CF1000CF6D36279A57262
:1006900045EC4020227B013BC4E90401E57A63621A
:1006A0002AB1002DE9D1A36A0133A362E5E7002D49
:1006B000E3D1A36A013BA362DFE700BF10B50446A4
:1006C000302105F0DDFB204610BD00BF2DE9F047CD
:1006D0000025044608462E4660F307059DF820C015
:1006E00062F30F259DF828809DF824909DF830E056
:1006F0000D9963F31745DFF8C0A06CF31F6584F80C
:100700000980C4F800A084F8089084F818E0E1613A
:100710006560A67266629DF82C704FF0010803F0C8
:1007200041FE237948EC443048EC4030607903F0D6
:1007300039FE637948EC4430A07903F033FEA379A5
:1007400048EC443048EC4030E07903F02BFEE3798C
:1007500048EC4430207A03F025FE237A48EC4430FC
:10076000607A03F01FFE637A48EC443004F05AFDCF
:10077000104A07EB4703C4E904019918A662E0791F
:1007800091F802C04CEC40004878217A40EC4010CF
:10079000D25C637A42EC403084F82070A37948EC54
:1007A0004030E672237948EC4030204684F80C80D3
:1007B000BDE8F08788360510443605102DE9F04372
:1007C00016461F46C569002283B0002304463946F9
:1007D000304605F0ADF92B68011E18BF01212846EF
:1007E0009B6998470022002330463946256805F06A
:1007F0009FF918B3124B2A4603201249FFF7B6FEA1
:1008000027F00049A06905F011F932464B4605F082
:1008100079F804F0B3FF05F02DF9B046E66901461A
:1008200033683046DB689847CDE9008903200649E4
:100830002268FFF79BFE03B0BDE8F083034BDAE7C5
:10084000B0160510B8160510D4160510B41605100C
:10085000F0B5044616461F46C06985B00368C4E972
:100860000C671B6A98470546A06905F0DFF8324619
:100870003B4605F047F802460B460EA1D1E90001C0
:1008800005F066F804F07AFF05F0F4F8451BE0691E
:10089000294603685B689847CDE900670320226812
:1008A00003490295FFF762FE05B0F0BDAFF300808B
:1008B000F416051000000000389C8C412DE9F04131
:1008C0001E4600F1080384B00360D1E900850F2DB6
:1008D00004461746039545D8012D40D198F80020CD
:1008E0000272002265605A553B6838465B6AE761D0
:1008F00098470346234A2046D55CDDE90A2305FBD9
:1009000006F6A661FFF7A4FFE06903681B6B984732
:100910002062804605F078F80646A0690F4605F08B
:1009200085F802460B463046394605F011F8064672
:100930000F4622684346C4E90A670320CDE90067F1
:100940001149FFF713FEA269032000922B460F49BD
:100950002268FFF70BFE204604B0BDE8F081002DB1
:10096000BFD007E0002203A922F0CAFC0346039A85
:100970002060A2602A461846414645F0B9FD039D15
:100980002368AEE7A0360510281705105417051088
:100990002DE9F0410546C86982B003680C461B6B1F
:1009A00098472062804605F02FF80646A0690F465A
:1009B00005F03CF802460B463046394604F0C8FFC5
:1009C00006460F4622684346C4E90A670320CDE97C
:1009D00000670649FFF7CAFDD4E90A232846216AC1
:1009E000C5E90023A96002B0BDE8F0812817051011
:1009F0002DE9F043044683B080699046994605F09E
:100A000015F842464B4606460F4604F07BFF04F0BD
:100A1000B5FE05F01DF82062054604F0F5FF3246EC
:100A20003B4604F095FF06460F462268C4E90A6774
:100A300003202B46CDE900670249FFF797FD03B07D
:100A4000BDE8F0832817051070B504460D46C0694F
:100A500003685B699847226835B1BDE870400320A0
:100A6000054B0649FFF782BD0320BDE87040044BEB
:100A70000249FFF77BBD00BF9C170510B01705109A
:100A8000A4170510C06903689B6B18472DE9F04156
:100A90000446C06982B003681B689847054618B9C8
:100AA000284602B0BDE8F081E06903681B6B9847F7
:100AB0002062804604F0A8FF0646A0690F4604F0B5
:100AC000B5FF02460B463046394604F041FF064664
:100AD0000F462268C4E90A6703204346CDE9006750
:100AE0000349FFF743FD284602B0BDE8F08100BF8F
:100AF00028170510704700BF08467047012A06D026
:100B0000022A0AD0032A00D022B1002070470160D7
:100B1000002070470260002070470B6803600020CF
:100B2000704700BF012A06D0022A0AD0032A00D04B
:100B300022B1002070470160002070470260002051
:100B400070470B6803600020704700BF012A06D081
:100B5000022A0AD0032A00D022B100207047016087
:100B6000002070470260002070470B68036000207F
:100B7000704700BF012A06D0022A0AD0032A00D0FB
:100B800022B1002070470160002070470260002001
:100B900070470B6803600020704700BF012A06D031
:100BA000022A0AD0032A00D022B100207047016037
:100BB000002070470260002070470B68036000202F
:100BC000704700BF026A2DE9F8438369103A9342E7
:100BD00004460D4613D00022C968C3E90022D9603B
:100BE000A9689A6031B19960C5E9022295E80300CD
:100BF00083E80300A3691033A361BDE8F883466A64
:100C00006FF0784CB6F1000E18BF4FF0010EC269BC
:100C100041699B1A02698068771A121A1B11CEEB80
:100C2000A70003EB401303EB221363454FEAA70829
:100C300000F08E80D4E90003321AA3EBA202012A4D
:100C40001FD94FF4007005F013F900227060A369FA
:100C5000E968C3E90022D960A9689A6031B1996056
:100C6000C5E9022295E8030083E80300626A53683D
:100C7000043203F50071C4E907316262A361BDE883
:100C8000F88308F10202B3EB420F1FD99B1A5B08ED
:100C900000EB8308321D4145A2EB01023AD9042A38
:100CA00040DD404642F0C4FAD8F8003008EB0706B1
:100CB000E36003F50073236158F80730C4F814802B
:100CC00003F50072C4E907326662BAE7012B2CBF54
:100CD000DE185E1C06F10209B9F1005F27D24FEA67
:100CE000890005F0C5F8626A61690432A6EB080361
:100CF000521A5B08042A064600EB83081CDD4046B6
:100D000042F096FA61682068890005F0B9F8C4E9F4
:100D10000069C9E7381D042A404412DD801A42F0F8
:100D200087FAC1E7C0D10A6840F82320BCE7B9F1CF
:100D3000804F0BD316F07AF904BF0A6840F82320DD
:100D4000E0E7B1D10B6840F8043CADE716F05EF97E
:100D5000014816F0BBF900BFC41705102DE9F04F8C
:100D6000BBB0054617A816F087FB0021564BCDE90E
:100D70003511D3E90142CDE93711544BADF8D0100C
:100D8000179354F80C3C33916B4406949A61079185
:100D900054F80C0C06AF3844029216F057FB0021B1
:100DA0004B4EDFF8349106F1140B0FA8CDE9091171
:100DB000CDE90B11CDE90D110696CDF85CB0CDF85B
:100DC000209021F04FFCD5E900350021DFF80CA17F
:100DD0000DF14C081091CDF820A0CDF84480002BE7
:100DE00062D00F2D059555D9039305AB0A4611A87E
:100DF0001946019322F084FA059A039B13921190ED
:100E00002A46194645F074FB059D119B2B4412950B
:100E100000251D7008232A461199109308A82B4617
:100E200022F0B6F808A917A816F010FB069B384662
:100E300053F80C2C01993A44D36823F48053D360BF
:100E400016F06CFC1C9B119813F0050F08BFC3F340
:100E5000400540450696CDF85CB0CDF820A003D003
:100E60001399013105F00CF80FA8CDF8209009F086
:100E70006DFD002254F80C3C02996B440694996174
:100E8000124B17A80792179316F032FB28463BB077
:100E9000BDE8F08F012D0DD11B7805AA8DF84C30DF
:100EA00001920DF14D03B2E755B905AA434600255D
:100EB0000192ACE7002DF8D005AA404601929FE7C9
:100EC000044816F0D3F800BF60590510BC51051056
:100ED0007C590510F4170510D45905100059051058
:100EE0002DE9F047056881460C4682B0002D00F0E0
:100EF0008180A468002C5AD0242004F0B9FF00227D
:100F000007460346A5680C3043F8042B0F2D786084
:100F1000666801954ED8012D7ED133783B734FF032
:100F20000008BD6000F80580237FD9F804103B77E6
:100F3000236A4A46B3FBF1F03B6201FB103352F8DF
:100F4000081BC9F8087041F8232025687DB32420C8
:100F500004F08EFF04460346AE680C3043F8048B61
:100F60000F2E6060D5F804A0019634D8012E2FD141
:100F70009AF800302373A66000F806802B6AD9F82F
:100F800004202E7FB3FBF2F026773C60236202FB45
:100F90001033D9F8001051F823201AB12D6835B15B
:100FA0002746D4E741F823702D68002DF8D102B010
:100FB000BDE8F087184601A922F0A2F9019B7860EC
:100FC000FB602A46314645F093FA019D7868A6E712
:100FD000002ED0D007E01846002201A922F090F997
:100FE000019B6060E3603246514645F081FA019E04
:100FF0006068C0E74668012E11D0B6F1005F12D2DA
:10100000B600304604F034FF32462946064642F028
:101010008DF9C9F800606CE7002D80D0D1E7064655
:1010200046F8185FF5E7B6F1804F01D315F0FEFFE3
:1010300015F0ECFF012A70B5044603D10B6803607C
:10104000002070BD022A32D0032A03D0002AF7D133
:101050000260F5E70668002EF2D0B56885B12C462F
:10106000606804F10C0398422D6803D0E1680131F7
:1010700004F006FF2421204604F002FF002DEED1EB
:10108000726800219200306842F050F90022306806
:1010900006F118039842C6E90222716802D089005D
:1010A00004F0EEFE2021304604F0EAFEC8E72020DE
:1010B0000E6804F0DDFE002305467268F168C0E9A1
:1010C0000032C16000F1100206F11001836003C913
:1010D00082E80300AB6131462846FFF701FFF36960
:1010E0002560EB61ACE700BF2DE9F04300278046A7
:1010F00089B004AE029603978DF81070002006F0B8
:1011000063FC831C5FFA80F91FD00D28F6D0DDE95F
:1011100002350A2805F1010429D0B3420CBF0F2281
:10112000049A944205D803F80590029B03941F5536
:10113000E4E700234FF0010C1A46294602A8CDF837
:1011400000C022F067F9029BEDE70023029808F146
:101150000802B042C8E9002388F8083003D0049997
:10116000013104F08DFE404609B0BDE8F08308F17E
:101170000800B342C8F800000AD0049AC8F800304A
:10118000C8F808204046C8F8045009B0BDE8F0830C
:101190003146224645F0ACF9F4E700BF2DE9F04FA7
:1011A000D1E9007300248BB007EB03080DF1180997
:1011B0004745CDE9031905948DF818406AD0CB4610
:1011C000A24609E00BF80450049B0596B84503F8C5
:1011D00006A0DDE904B416D017F8010B41F096F92A
:1011E000CB450CBF0F22069A661C9642C5B2E9D9C0
:1011F000002301222146009204A81A4622F00AF98F
:10120000049B1D55E0E7042C1CD0052C0AD1224676
:101210005846214941F0DEFFC0B9CB454FF00104EB
:1012200007D10BE0039B5A68012A13D00024CB4559
:1012300004D006995846013104F022FE20460BB036
:10124000BDE8F08F9BF80020742A0CD0039B5A68ED
:10125000012A19D1039B1A681478303C012C8CBFE9
:1012600000240124E3E79BF801200BF10101722A1D
:10127000ECD111F8012F752AE8D14A78652AE5D119
:10128000CB4505D00124D4E7CB4503D00024D0E7DB
:101290000124D3E70024D1E7301805102DE9F04FE1
:1012A000D1E9007300248BB007EB030A0DF1180895
:1012B0005745CDE9031805948DF818403CD0C14638
:1012C000A3460AE009F80450049B0596BA4503F8C2
:1012D00006B0059C1AD0DDF8109017F8010B41F00C
:1012E00015F9C1450CBF0F22069A661C9642C5B27D
:1012F000E8D900234FF0010C1A46214604A8CDF886
:1013000000C022F087F8049B1D55DDE7042C0CD0AB
:10131000012C23D0052C0CD1049D224628461949C6
:1013200041F058FF044670B103E0049D2B78742B04
:101330001BD0039BD3F800A0524600201249FFF7B0
:1013400015F9049D0024454504D00699284601312D
:1013500004F096FD20460BB0BDE8F08F049D2B787D
:10136000312BF0D0302BEDD0E3E76B786A1C722B79
:10137000DFD112F8013F752BDBD15378652BD8D123
:101380000124E0E730180510381805102DE9F04762
:10139000002607464D68CB6882B00C46C0E9026360
:1013A000103100F11003012DC0E9006503C908BF29
:1013B00007F1180583E80300BE610CD0B5F1005FAA
:1013C00080F09A80AD00284604F052FD2A4631464E
:1013D000054641F0ABFFA4683D60002C62D0302090
:1013E00004F046FD002203468046E56843F8082BDA
:1013F00003F10800C8F808000F2DA668019555D81C
:10140000012D76D1337888F810304FF00009C8F8F4
:101410000C5000F80590A16A78683A46B1FBF0F3E9
:1014200094ED087B00FB1313C8F8281052F8081B32
:10143000C7F8088088ED087B41F8232025688DB324
:10144000302004F015FD03460446EE6843F8089B7F
:1014500003F10800A0600F2ED5F808A0019639D836
:10146000012E34D19AF800302374E66000F806901B
:10147000AA6A796895ED087BB2FBF1F301FB1323AF
:10148000386884ED087BC8F80040A26250F8232039
:101490001AB12D6835B1A046D2E740F823802D68F7
:1014A000002DF8D1384602B0BDE8F087184601A9F2
:1014B00021F026FF019BC8F80800C8F810302A4622
:1014C000314645F015F8019DD8F808009DE7002E3B
:1014D000CBD007E01846002201A921F011FF019BA3
:1014E000A06023613246514645F002F8019EA06893
:1014F000BBE7002D89D0E2E7B5F1804F01D315F0AD
:1015000095FD15F083FD00BF012A70B5044603D197
:101510000B680360002070BD022A33D0032A03D079
:10152000002AF7D10260F5E70668002EF2D0B46811
:101530008CB125462B4653F8080F2468083398428F
:1015400003D02969013104F09BFC3021284604F0C6
:1015500097FC002CEDD1726800219200306841F0B8
:10156000E5FE0022306806F118039842C6E902221F
:10157000716802D0890004F083FC2021304604F019
:101580007FFCC7E720200E6804F072FC0546314658
:10159000FFF7FCFEF3692560EB61BBE7012A70B53C
:1015A000044603D10B680360002070BD022A33D0CB
:1015B000032A03D0002AF7D10260F5E70668002E5F
:1015C000F2D0B4688CB125462B4653F8080F246836
:1015D0000833984203D02969013104F051FC3021CD
:1015E000284604F04DFC002CEDD1726800219200D9
:1015F000306841F09BFE0022306806F118039842E3
:10160000C6E90222716802D0890004F039FC202169
:10161000304604F035FCC7E720200E6804F028FCB3
:1016200005463146FFF7B2FEF3692560EB61BBE783
:101630002DE9F04F8B4681467F4A4968DBF8000070
:1016400085B008F053FED9F80450D9F80030B0FB4B
:10165000F5F705FB170753F8278006464FEA870A78
:10166000B8F1000F24D0D8F80040236A0AE02268BD
:10167000F2B1136AA046B3FBF5F105FB11318F42BD
:1016800016D114469E42F2D1DBF80420A3689A4298
:10169000EDD132B16168DBF8000041F09BFD00281C
:1016A000E5D1D8F8000018B11C3005B0BDE8F08FC6
:1016B000242004F0DDFBDBE900850446002200F174
:1016C0000C030F2D40F8042B0295636031D8012DD7
:1016D0003FD002AF002D34D14FF0000BA56003F8CE
:1016E00005B00123C4F81CB00093D9F80C3038467B
:1016F000D9F8042009F1100115F0E8FD9DF8083033
:1017000063BBD9F80050266255F80A3005EB0A028F
:10171000002B65D01B68236055F80A301C60D9F88F
:101720000C3004F11C000133C9F80C3005B0BDE8E1
:10173000F08F02AF394621F0E3FD0346029A606064
:10174000E2602A461846414644F0D2FE029D636894
:10175000C2E798F8002002AF2273BDE7039F012F74
:101760005ED0B7F1005F60D24FEA8708404604F0D0
:101770007FFB42465946054641F0D8FD09F118085D
:101780000023D9F80800C9F8083098B19C4609F13F
:10179000080E0246136A0068B3FBF7F107FB11332A
:1017A00055F8231079B30968116055F823301A6091
:1017B0000028EED1D9E90001404502D0890004F0AB
:1017C0005FFBB6FBF7FA07FB1A6A4FEA8A0A55F87D
:1017D0000A30C9E90057266205EB0A02002B99D1AD
:1017E000D9F80830C9F80840236043B11B6AD9F81A
:1017F0000410B3FBF1F001FB103345F8234009F16D
:10180000080313608BE7D9F808101160C9F80820A5
:1018100045F823E0116809B145F82C209C46C7E73C
:10182000C84648F818BF4546AAE7B7F1804F01D32C
:1018300015F0FCFB15F0EAFB07690FC730B505682A
:1018400083B0AC68B4B1E86904F108012830FFF74F
:10185000EFFED4E908230068FEF7B0FF94ED087BA3
:10186000A26802208DED007B0349FEF77FFE24680D
:10187000002CE8D103B030BD5418051030B5056810
:1018800083B0AC68B4B1E86904F108012830FFF70F
:10189000CFFED4E908230068FEF7DAFF94ED087B59
:1018A000A26802208DED007B0349FEF75FFE2468ED
:1018B000002CE8D103B030BD7C18051038B50568A0
:1018C000AC683CB915E00B4B02200B49FEF74EFE0D
:1018D000246874B1E869211D2830FFF7A9FE217F33
:1018E0000068FFF7B1F8237F6268002BEBD1034B50
:1018F000EAE738BD9C1705109C180510A4170510C1
:10190000C3682DE9F047142B04460E461ED88468A0
:1019100084B14D68A5B1A368AB4204D024684CB132
:10192000A368AB42FAD12A466168306841F052FCA4
:101930000028F3D12046BDE8F0872468002CF9D0B8
:10194000A368002BF9D12046BDE8F0871D4AD1E9F4
:10195000000108F0CBFC65682368B0FBF5F805FBD7
:10196000180853F828900746B9F1000F25D0D9F888
:1019700000A0DAF820300CE0DAF80040002CD9D0D2
:10198000236AD146B3FBF5F205FB1232904514D120
:10199000A2469F42F0D17268DAF808309A42EBD141
:1019A00032B1DAF80410306841F014FC0028E3D1B9
:1019B000D9F800402046BDE8F08700242046BDE865
:1019C000F08700BF07690FC700232DE9F04F8B4652
:1019D0009FB0C9691AAF0646189719938DF86830F9
:1019E000002900F05A82DBF8143013B1994238BF55
:1019F00019460022DBF8183018A8C91A00911146C0
:101A000021F072FE594612A815F036FE129A199B63
:101A10009A4200F250829C1A189B0EA90F2C0B942C
:101A20000C9103EB020500F20F82012C5ED19B5C4E
:101A30008DF838300EAA00230D9413551898B8422B
:101A400003D01A99013104F01BFA00231C4614AA92
:101A5000CDE912238DF8503004930393584612A910
:101A600008F09CFC036853F80C3C1844426912F0DF
:101A7000050240F0E980DDE91285002D3AD00F2DF6
:101A800018970B9544D8012D3AD198F800308DF86D
:101A900068303B464FF00008199503F80580306820
:101AA00018A92830FFF72CFF002800F0AB81049B19
:101AB0009C4235D0199D04F108000F2DDDF860908F
:101AC0000B95206000F2B180012D00F0AA80002D5E
:101AD00040F0B38000236560183443551898B8422D
:101AE000BCD01A99013104F0CBF9B7E7002CA1D092
:101AF0000EA8B1E1424601209E49FEF737FDADE751
:101B000038462A46414644F0F3FC0B9D189BC1E73A
:101B100018A80BA921F0F4FB0B9B18901A93F0E77F
:101B2000039B954AA4EB03084FEAE80302FB03F387
:101B3000924A934200F0BC81012B1A4638BF012221
:101B40009B1880F0B2818D4A934228BF134603EB65
:101B500043034FEAC30A504604F08AF90546199B2D
:101B6000189A00EB080909F108000F2B0B93059256
:101B700045F8080000F25481012B40F04D811278A5
:101B800089F808200022C9F80430C254039A94420C
:101B900000F08981904605F1080302F1080943F835
:101BA000083CD8E90012494528D043E9021208F15F
:101BB000180858F8102CA0451A6009F1180903F10B
:101BC0001803ECD1039AA4F118039B1A6C4ADB08A2
:101BD00002FB03F323F06043013303EB430305EB04
:101BE000C304039B183423B1049A1846D11A04F095
:101BF00047F905EB0A03CDE903536FE74946184659
:101C0000013244F075FC0346D8F8042008F11808A6
:101C1000A04509F1180940F8042C03F11803BED1BE
:101C2000D0E799F80030237254E7424620460BA9CA
:101C300021F066FB0B9B2060A3602A46494644F0D6
:101C400057FC0B9D206845E7039B9C4200F01F81D9
:101C50001D464FF000084FF0000930682946283033
:101C6000FFF7E6FC42464B460068FEF7A7FD3068EA
:101C700029462830FFF7DCFC03461835196818A8F8
:101C8000FEF786FEAC42E8D1202004F0F1F80546CC
:101C90004FF4007004F0ECF80822336805F10C07EB
:101CA0001968D3F814A006915968D3F82490E86015
:101CB00009911969C3E9005200F500729E689D6997
:101CC000D3F81CB0D8605F615F621A6298600591BA
:101CD0001A619861D861002005F076FE0230FAD1D1
:101CE00002200C9A27490AF10408FEF73FFCC1457F
:101CF00014D94746CDE9076457F8044B04F500763C
:101D0000A368002B77D02146204603221034984741
:101D1000A642F5D1B945EFD8DDE90764CA4500F020
:101D2000A280059B9E421BD0B36853B1314630461A
:101D300003229847059B1036B34211D0B368002B9D
:101D4000F4D1059B1036B342EED15D450AD0DBF8E5
:101D500008301BB103225946584698470BF1100B27
:101D60005D45F4D1069BFBB109F10409CA450DD3C9
:101D700015E000BF08190510ABAAAAAA55555505CC
:101D8000ABAAAA0A4C19051008F10408DAF80000F9
:101D90004FF4007104F074F8C145C246F4D8099BB1
:101DA0000698990004F06CF8039D2B4653F8080B35
:101DB000984203D0A968013104F062F81835AC42AA
:101DC000F3D1039B23B1049A1846D11A04F058F8B2
:101DD000129814AB984203D01499013104F050F8D2
:101DE0000C980EAB984203D00E99013104F048F8DC
:101DF0001FB0BDE8F08F1034A64281D1B9453FF63F
:101E00007BAF89E70120189A2D49FEF7AFFB1898A0
:101E1000B8427FF466AE21E6002B3FF4B3AE0BE090
:101E2000002248460BA9069321F06AFA0B9A069BFA
:101E300045F80800C9F808201A46059944F058FBEF
:101E400055F808000B9B9DE600220CA80BA921F079
:101E500057FA0B9B0C900E932246294644F048FB00
:101E6000DDE90B42E7E5AE423FF47CAFB36853B126
:101E700031463046032210369847B5423FF472AFE0
:101E8000B368002BF4D11036B542EFD16AE70120D8
:101E90000C9A0C49FEF76AFB93E70BF12C0118A88A
:101EA00021F084FAAEE52C469BE6DFF828A052E646
:101EB000054815F00BF90549054815F037F900BF3D
:101EC0001C1905106019051030190510B8180510F7
:101ED000D0180510F8FFFF7F2DE9F04F8B468146A3
:101EE000834A4968DBF8000085B008F0FFF9D9F8AB
:101EF0000450D9F80030B0FBF5F705FB170753F88D
:101F0000278006464FEA870AB8F1000F24D0D8F898
:101F10000040A36A0AE02268F2B1936AA046B3FBCC
:101F2000F5F105FB11318F4216D114469E42F2D1D4
:101F3000DBF80420E3689A42EDD132B1A168DBF806
:101F4000000041F047F90028E5D1D8F8000018B1A9
:101F5000203005B0BDE8F08F302003F089FFDBE9C9
:101F600000850022044640F8082B00F108030F2DDD
:101F70000295A36033D8012D41D002AF002D36D198
:101F80004FF0000BE56003F805B001239FED567B91
:101F90000093D9F80C30384684ED087BD9F804203A
:101FA00009F1100115F092F99DF8083063BBD9F8DA
:101FB0000050A66255F80A3005EB0A02002B65D0E6
:101FC0001B68236055F80A301C60D9F80C3004F106
:101FD00020000133C9F80C3005B0BDE8F08F02AF26
:101FE000394621F08DF90346029AA06022612A4603
:101FF0001846414644F07CFA029DA368C0E798F871
:10200000002002AF2274BBE7039F012F5ED0B7F11F
:10201000005F60D24FEA8708404603F029FF42463E
:102020005946054641F082F909F118080023D9F80C
:102030000800C9F8083098B19C4609F1080E02461C
:10204000936A0068B3FBF7F107FB113355F82310CF
:1020500079B30968116055F823301A600028EED171
:10206000D9E90001404502D0890003F009FFB6FB21
:10207000F7FA07FB1A6A4FEA8A0A55F80A30C9E9E3
:102080000057A66205EB0A02002B99D1D9F8083057
:10209000C9F80840236043B19B6AD9F80410B3FB28
:1020A000F1F001FB103345F8234009F108031360F8
:1020B0008BE7D9F808101160C9F8082045F823E02B
:1020C000116809B145F82C209C46C7E7C84648F876
:1020D00018BF4546AAE7B7F1804F01D314F0A6FF19
:1020E00014F094FFAFF30080000000000000000037
:1020F00007690FC700232DE9F04FE1B003912D933D
:102100008DF8B8300B46C9692EAA80462C9200295A
:1021100000F0CA825B6913B1994238BF19460022A8
:10212000039B2CA89B69C91A0091114621F0DCFA87
:10213000039924A815F0A0FA249A2D9B9A4200F244
:10214000BD829C1A2C9B0EA90F2C1EAF0C9103EB89
:1021500002053C6000F26C82012C40F032819B5CF5
:102160008DF838300EAA00230D9413552C982EAB01
:10217000984203D02E99013103F082FE0023012200
:10218000CDE925234FF07E52CDE9293327931393D0
:102190008DF8503014AB12932AAB0DF148092892F8
:1021A0002493CDF814804946039808F0F7F80368A3
:1021B00053F80C3C1844436913F0050640F0408185
:1021C000D9F80430012BEED93DA815F055F9954BFF
:1021D000CDE95B66D3E90152CDE95D66924BADF87E
:1021E00068613D9355F80C3C59966B442C95C3F8A7
:1021F000B0202D9655F80C0C2CAB184431460492A7
:1022000015F024F9894B35A82C9314333D93884B52
:10221000CDE93066CDE92E36CDE93266349620F030
:1022200021FA844BD9F800A00DF1E408D9F8044054
:1022300036962E93CDF8DC80BAF1000F00F0D080F6
:102240000F2C3C6000F2D280012C40F0EC819AF817
:1022500000308DF8E4300DF1E503002638941E704F
:1022600008233246379936932EA8334620F090FE45
:1022700018AC2EA93DA80DF1800A15F0E7F87E6094
:102280003E72666026722C2221461AAEC7F800A064
:102290002CA8266008F0C6F9036853F80C3C1844D3
:1022A000436913F0050F40F091802C9B53F80C3CD0
:1022B0006B44D3F82CB1BBF1000F00F003829BF804
:1022C0001C30002B00F0A2809BF8272039462CA858
:1022D00008F0A8F9036853F80C3C1844436913F05C
:1022E000050B73D1059B214618682830FFF708FBC2
:1022F000002800F0D3817B68002B00F08E813846E7
:10230000FEF72CFD002800F088813B68089343F01D
:1023100053FF0268099243F04FFFC0F800B00DF17F
:102320002C0B594608983FF0E1FEDBF80030089A84
:10233000CDE90601934200F0C78143F03DFF0368F9
:10234000222B00F0C48143F037FF0368002B00F01C
:10235000A081214624A8FFF7BFFD9DED067B80EDFF
:10236000007B3868504503D0B968013103F088FD1F
:102370002068B04203D0A168013103F081FD2D4BEC
:1023800037982E93294B40452C9303F114033D932A
:1023900003D03999013103F073FD254B35A82E93F5
:1023A00008F0D4FA002255F80C3C04996B442C95A3
:1023B000C3F8B0101C4B3DA82D923D9315F098F832
:1023C000F1E6002C3FF4CEAE0EA839E10120D9F899
:1023D00000201949FEF7CAF838685045C4D1C7E74C
:1023E000002C40F068814346002436E732463946E7
:1023F00037A820F085FF3B68379039932246514635
:1024000044F076F83C68379B234426E758460CF0A6
:10241000E9F8DBF80030094A9B69934240F01D81DE
:102420000A2253E760590510BC5105107C5905106C
:10243000D45905100059051008190510F90A0010A3
:10244000279BDDF81480002B00F00181269EE6B169
:1024500000240025D8F8000006F108073946283086
:10246000FFF7E6F822462B460068FEF7A7F9D8F8F2
:10247000000039462830FFF7DBF8D6E9082300686A
:10248000FEF7B6FA3668002EE4D1202003F0F0FC07
:1024900004464FF4007003F0EBFC0822D8F800303B
:1024A00004F10C051968D3F814A0D3F82480049122
:1024B0005968E060C3E9004200F500721C691A62C5
:1024C0001A619A69D3F81CB05D615D6206919D68DE
:1024D000D860986003929861D861002005F074FA82
:1024E0000230FAD102200C9A7A490AF10407FEF769
:1024F0003DF8B84516D93E46CDF814B0089456F8C4
:10250000044B04F5007BA368002B7BD021462046BA
:102510000322103498475C45F5D1B045EFD8DDF87B
:1025200014B0089CC24505D19CE0294628460322E8
:1025300098471035A54205D0AB68002BF5D1103572
:10254000AC42F9D1039B5B450CD0DBF80830002B83
:1025500060D05946584603229847039B0BF1100B55
:102560009B45F2D1049B9BB108F10408C24501D3FD
:1025700009E00437DAF800004FF4007103F080FC42
:10258000B845BA46F5D8069B0498990003F078FC44
:10259000269C8CB125462B4653F8080F2468083337
:1025A000984203D02969013103F06AFC30212846A2
:1025B00003F066FC002CEDD1259A002124989200AE
:1025C00040F0B4FEDDE924010023CDE926332AAB37
:1025D000984202D0890003F053FCD9F8000014ABF4
:1025E000984204D0D9F80810013103F049FC0C9846
:1025F0000EAB984203D00E99013103F041FC61B05B
:10260000BDE8F08F1034A3457FF47DAFB0453FF6B1
:1026100076AF84E70BF1100B94E701203A682E495E
:10262000FDF7A4FFD8E6002C3FF4DDAE4046E5E61A
:10263000002239460CA820F063FE3B680C900E93F4
:102640002246294643F054FF3C680C9A8BE5012052
:102650000C9A2249FDF78AFF9AE758460A219847C3
:10266000024633E6039B9D423FF47CAFAB685BB10F
:102670002946284603229847039B1035AB423FF476
:1026800071AFAB68002BF3D1039B1035AB42EDD19A
:1026900068E743F091FD099B03605AE60120226838
:1026A0000F49FDF763FF97E6039B2CA803F12C016C
:1026B00020F07CFE3CE50B4814F0D8FC0A490B489E
:1026C00014F034FD14F0C2FC094814F0E7FC08488B
:1026D00014F014FDA419051090190510B81905106F
:1026E0001C190510F4170510B8180510D01805109E
:1026F00088190510FFF7FEBC00232DE9F04F89462D
:10270000DFB0C9692CAA2A922B9303908DF8B030C0
:10271000002900F08C82D9F8143013B1994238BFE7
:1027200019460022D9F818302AA8C91A0091114672
:1027300020F0DAFF494622A814F09EFF229A2B9C33
:10274000A24200F28382A41A2A9B0CA90F2C0DF13D
:1027500070080A9103EB0205C8F8004000F24082BD
:10276000012C40F035819B5C8DF830300CAA0023A1
:102770000B9413552A982CAB984203D02C99013115
:1027800003F07EFB00230122CDE923234FF07E528C
:10279000CB46CDE92733259311938DF8483012AB02
:1027A000109328AB10AF269222933946584607F073
:1027B000F5FD036853F80C3C1844436913F0050613
:1027C00040F048817B68012BEFD93BA814F054FE00
:1027D000994BCDE95966D3E90152CDE95B66974B38
:1027E000ADF860613B9355F80C3C57966B442A95C5
:1027F000C3F8A8202B9655F80C0C2AAB1844314688
:10280000029214F023FE8E4B33A82A9314333B9389
:102810008C4BCDE92E66CDE92C36CDE9306632966B
:102820001FF020FF884BD7F800A00DF1DC097C6871
:1028300034962C93CDF8D490BAF1000F00F0D880E4
:102840000F2CC8F8004000F2D980012C40F0BD8167
:102850009AF800308DF8DC300DF1DD030026369457
:102860001E7008233246359934932CA8334620F045
:102870008FFB2CA93BA814F0E9FD16AC1EABC8F8E1
:10288000046088F80860C8F80030666026722C2260
:10289000214618AE2AA8266007F0C4FE036853F844
:1028A0000C3C1844436913F0050F40F096802A9BB6
:1028B00053F80C3C6B44D3F824A1BAF1000F00F09C
:1028C000CA819AF81C30002B00F0AA809AF82720C1
:1028D00041462AA807F0A6FE036853F80C3C1844AA
:1028E000436913F0050A78D1039B21461868283004
:1028F000FFF706F8002800F09481D8F80430002B88
:1029000000F05C814046FEF729FA002800F056816D
:10291000D8F80030069343F04FFC0268079243F06A
:102920004BFCC0F800A00DF1240A514606983FF078
:10293000DDFBDAF80030069ACDE90401934200F09D
:102940007F8143F039FC0368222B00F07C8143F047
:1029500033FC0368002B00F05F81214622A8FFF7BB
:10296000BBFA9DED047B80ED007BD8F800001EAB28
:10297000984204D0D8F80810013103F081FA206899
:10298000B04203D0A168013103F07AFA2E4B35989A
:102990002C932B4B48452A9303F114033B9303D00C
:1029A0003799013103F06CFA264B33A82C9307F0CA
:1029B000CDFF002255F80C3C02996B442A95C3F8D0
:1029C000A8101E4B3BA82B923B9314F091FDECE614
:1029D000002C3FF4CBAE0CA80BE101203A681B4958
:1029E000FDF7C4FDD8F800001EAB9842C2D1C6E77F
:1029F000002C40F022814B4600242FE7324641460E
:102A000035A820F07DFCD8F8003035903793224669
:102A1000514643F06DFDD8F80040359B23441DE737
:102A200050460BF0DFFDDAF80030094A9B6993420B
:102A300040F0E7800A224BE760590510BC510510B1
:102A40007C590510D45905100059051008190510B6
:102A5000F90A0010259B002B00F0BC800024039E87
:102A600022A92AA83568FEF791FC33682020C8E91E
:102A70000044C8E90244319303F0FAF9DDE92C91EE
:102A8000DDE92A2C034630AEC16000F1100E2EA9FC
:102A9000B242C0E9002CC0F8089003C98EE80300D8
:102AA0009C6100F0B380B9F1000F09D0D9F828106B
:102AB00003F10800B1FBFCF40CFB141142F82100F7
:102AC00000220121CDE92F22CDE92C22319AC8F82C
:102AD0000030DA61614B2B91C8F80C30604B28460E
:102AE000C8F8083041462A96FEF76CF8D8F8083046
:102AF0001BB103224146404698472C9C8CB1254689
:102B00002B4653F8080F24680833984203D02969EC
:102B1000013103F0B5F93021284603F0B1F9002C5A
:102B2000EDD12B9A00212A98920040F0FFFBDDE9BD
:102B30002A010023B042CDE92C3302D0890003F0F2
:102B40009FF902200A9A4749FDF710FD249C8CB199
:102B500025462B4653F8080F24680833984203D0C3
:102B60002969013103F08CF93021284603F088F9F6
:102B7000002CEDD1239A00212298920040F0D6FB40
:102B8000DDE922010023CDE9243328AB984202D0AD
:102B9000890003F075F9386812AB984203D0B96820
:102BA000013103F06DF90A980CAB984203D00C99EF
:102BB000013103F065F95FB0BDE8F08F0120D8F86E
:102BC00000202949FDF7D2FC0CE7002C3FF413AF9D
:102BD00048461CE701200A9A2449FDF7C7FCB5E7DF
:102BE000002241460AA820F08BFBD8F800300A905A
:102BF0000C932246294643F07BFCD8F800400A9A01
:102C0000B5E550460A219847024661E6309A9A6136
:102C100003F118021A6046E743F0CEFA079B0360FF
:102C20009BE6012022681249FDF7A0FCDAE609F1D3
:102C30002C012AA820F0BAFB7CE50E4814F016FA05
:102C40000D4814F02BFA0C4814F058FA23460B499F
:102C50000B4814F06BFA14F0F9F900BF3D1800109E
:102C600009150010E019051090190510FC19051040
:102C70001C190510F417051088190510B81805104F
:102C8000D0180510FFF738BD00232DE9F04F894615
:102C9000DFB0C9692CAA2A922B9303908DF8B0302B
:102CA000002900F09082D9F8143013B1994238BF4E
:102CB00019460022D9F818302AA8C91A00911146DD
:102CC00020F012FD494622A814F0D6FC229A2B9C33
:102CD000A24200F28782A41A2A9B0CA90F2C0DF1A4
:102CE00070080A9103EB0205C8F8004000F2448224
:102CF000012C40F038819B5C8DF830300CAA002309
:102D00000B9413552A982CAB984203D02C9901317F
:102D100003F0B6F800230122CDE923234FF07E52C1
:102D2000CB46CDE92733259311938DF8483012AB6C
:102D3000109328AB10AF269222933946584607F0DD
:102D40002DFB036853F80C3C1844436913F0050647
:102D500040F04C817B68012BEFD93BA814F08CFB31
:102D60009B4BCDE95966D3E90152CDE95B66994B9E
:102D7000ADF860613B9355F80C3C57966B442A952F
:102D8000C3F8A8202B9655F80C0C2AAB18443146F2
:102D9000029214F05BFB904B33A82A9314333B93BD
:102DA0008E4BCDE92E66CDE92C36CDE930663296D4
:102DB0001FF058FC8A4BD7F800A00DF1DC097C68A5
:102DC00034962C93CDF8D490BAF1000F00F0DB804C
:102DD0000F2CC8F8004000F2DC80012C40F0C181CB
:102DE0009AF800308DF8DC300DF1DD0300263694C2
:102DF0001E7008233246359934932CA8334620F0B0
:102E0000C7F82CA93BA814F021FB16AC1EABC8F8E0
:102E1000046088F80860C8F80030666026722C22CA
:102E2000214618AE2AA8266007F0FCFB036853F879
:102E30000C3C1844436913F0050F40F099802A9B1D
:102E400053F80C3C6B44D3F824A1BAF1000F00F006
:102E5000CE819AF81C30002B00F0AD809AF8272024
:102E600041462AA807F0DEFB036853F80C3C1844DF
:102E7000436913F0050A7BD1039B2146186828306B
:102E8000FEF73EFD002800F09881D8F80430002BB2
:102E900000F060814046FDF761FF002800F05A8194
:102EA000D8F80030069343F087F90268079243F0A0
:102EB00083F9C0F800A00DF1240A514606983FF0AE
:102EC00015F9DAF80030069ACDE90401934200F0D2
:102ED000838143F071F90368222B00F0808143F075
:102EE0006BF90368002B00F06381214622A8FEF7EE
:102EF000F3FFDDE904120B4622F00042C0E9003284
:102F0000D8F800001EAB984204D0D8F80810013160
:102F100002F0B6FF2068B04203D0A168013102F090
:102F2000AFFF2F4B35982C932B4B48452A9303F139
:102F300014033B9303D03799013102F0A1FF274BD3
:102F400033A82C9307F002FD002255F80C3C02999F
:102F50006B442A95C3F8A8101E4B3BA82B923B93B9
:102F600014F0C6FAE9E6002C3FF4C8AE0CA80CE158
:102F700001203A681B49FDF7F9FAD8F800001EABAA
:102F80009842C2D1C6E7002C40F023814B46002472
:102F90002CE73246414635A820F0B2F9D8F8003087
:102FA000359037932246514643F0A2FAD8F80040B4
:102FB000359B23441AE750460BF014FBDAF8003037
:102FC000094A9B69934240F0E8800A2248E700BF23
:102FD00060590510BC5105107C590510D4590510D5
:102FE0000059051008190510F90A0010259B002B3F
:102FF00000F0BC800024039E22A92AA83568FEF7B1
:10300000C5F933682020C8E90044C8E90244319377
:1030100002F02EFFDDE92C91DDE92A2C034630AECB
:10302000C16000F1100E2EA9B242C0E9002CC0F818
:10303000089003C98EE803009C6100F0B380B9F1E9
:10304000000F09D0D9F8281003F10800B1FBFCF4F7
:103050000CFB141142F8210000220121CDE92F229E
:10306000CDE92C22319AC8F80030DA61614B2B91FE
:10307000C8F80C30604B2846C8F8083041462A96FC
:10308000FDF7A0FDD8F808301BB1032241464046A9
:1030900098472C9C8CB125462B4653F8080F246882
:1030A0000833984203D02969013102F0E9FE30214A
:1030B000284602F0E5FE002CEDD12B9A00212A983B
:1030C000920040F033F9DDE92A010023B042CDE956
:1030D0002C3302D0890002F0D3FE02200A9A47491D
:1030E000FDF744FA249C8CB125462B4653F8080F73
:1030F00024680833984203D02969013102F0C0FEE8
:103100003021284602F0BCFE002CEDD1239A00218C
:103110002298920040F00AF9DDE922010023CDE96E
:10312000243328AB984202D0890002F0A9FE386807
:1031300012AB984203D0B968013102F0A1FE0A989F
:103140000CAB984203D00C99013102F099FE5FB0AC
:10315000BDE8F08F0120D8F800202949FDF706FAD4
:103160000BE7002C3FF412AF48461BE701200A9AF8
:103170002449FDF7FBF9B5E7002241460AA820F0F3
:10318000BFF8D8F800300A900C932246294643F045
:10319000AFF9D8F800400A9AB1E550460A2198479D
:1031A00002465DE6309A9A6103F118021A6046E71A
:1031B00043F002F8079B036097E60120226812495A
:1031C000FDF7D4F9D9E609F12C012AA820F0EEF890
:1031D00078E50E4813F04AFF0D4813F05FFF0C48E6
:1031E00013F08CFF23460B490B4813F09FFF13F09D
:1031F0002DFF00BF7D1800109D150010241A05102A
:1032000090190510401A05101C190510F417051027
:1032100088190510B8180510D0180510FFF734BD2F
:103220002DE9F04F8B4681467F4A4968DBF8000064
:1032300085B007F05BF8D9F80450D9F80030B0FB3E
:10324000F5F705FB170753F8278006464FEA870A6C
:10325000B8F1000F24D0D8F80040236A0AE02268B1
:10326000F2B1136AA046B3FBF5F105FB11318F42B1
:1032700016D114469E42F2D1DBF80420A3689A428C
:10328000EDD132B16168DBF800003FF0A3FF002808
:10329000E5D1D8F8000018B11C3005B0BDE8F08FBA
:1032A000242002F0E5FDDBE900850446002200F160
:1032B0000C030F2D40F8042B0295636031D8012DCB
:1032C0003FD002AF002D34D14FF0000BA56003F8C2
:1032D00005B0012384F81CB00093D9F80C303846AF
:1032E000D9F8042009F1100113F0F0FF9DF808301F
:1032F00063BBD9F80050266255F80A3005EB0A0284
:10330000002B65D01B68236055F80A301C60D9F883
:103310000C3004F11C000133C9F80C3005B0BDE8D5
:10332000F08F02AF39461FF0EBFF0346029A606050
:10333000E2602A461846414643F0DAF8029D636887
:10334000C2E798F8002002AF2273BDE7039F012F68
:103350005ED0B7F1005F60D24FEA8708404602F0C6
:1033600087FD4246594605463FF0E0FF09F118083F
:103370000023D9F80800C9F8083098B19C4609F133
:10338000080E0246136A0068B3FBF7F107FB11331E
:1033900055F8231079B30968116055F823301A6085
:1033A0000028EED1D9E90001404502D0890002F0A1
:1033B00067FDB6FBF7FA07FB1A6A4FEA8A0A55F867
:1033C0000A30C9E90057266205EB0A02002B99D1A1
:1033D000D9F80830C9F80840236043B11B6AD9F80E
:1033E0000410B3FBF1F001FB103345F8234009F161
:1033F000080313608BE7D9F808101160C9F808209A
:1034000045F823E0116809B145F82C209C46C7E730
:10341000C84648F818BF4546AAE7B7F1804F01D320
:1034200013F004FE13F0F2FD07690FC700232DE926
:10343000F04F8946DBB0C96928AA269227930490E9
:103440008DF8A030002900F07782D9F8143013B13C
:10345000994238BF19460022D9F8183026A8C91A4F
:103460000091114620F040F949461EA814F004F9D5
:103470001E9A279CA24200F26882A41A269B08A9E1
:103480000F2C0DF16008069103EB0205C8F800400F
:1034900000F23182012C40F01A819B5C8DF82030C3
:1034A00008AA002307941355269828AB984203D006
:1034B0002899013102F0E4FC00230122CDE91F2309
:1034C0004FF07E52CDE9233321930D938DF83830A0
:1034D0000EAB0C9324AB0CAF22921E933946484698
:1034E00006F05CFF036853F80C3C1844436913F082
:1034F000050B40F02D817B68012BEFD937A813F025
:10350000BBFF8C4BCDE955BBD3E90152CDE957BB8D
:10351000894BADF850B1379355F80C3CCDF84CB110
:103520006B442695C3F89820CDF89CB055F80C0C48
:1035300026AB18445946039213F088FF7F4B2FA8FF
:103540002693143337937E4BCDE92ABBCDE9283B34
:10355000CDE92CBBCDF8B8B01FF084F8794BD7F883
:1035600000A033AE7C68CDF8C0B028933196BAF194
:10357000000F00F0BB800F2CC8F8004000F2BC80A8
:10358000012C40F0AD819AF800308DF8CC300DF16F
:10359000CD034FF0000A329483F800A0082352466E
:1035A0003199309328A853461FF0F2FC12AC28A999
:1035B00037A80DF1680B13F049FFC8F804A088F88C
:1035C00008A0C4F804A084F808A02C2221460DF11C
:1035D000500AC8F800B026A8C4F800A007F022F8E6
:1035E000036853F80C3C1844436913F0050F73D17A
:1035F000269B53F80C3C6B44D3F81401002800F0D0
:10360000A981037F002B00F0898090F82720414694
:1036100026A807F007F8036853F80C3C18444369E0
:1036200013F0050F58D1049B214618682830FEF787
:1036300067F9002800F07A81D8F80430002B00F0F8
:103640004881049B41461868FDF7A8FD002800F05A
:103650004081049B41461868FDF720FE21460590F5
:103660001EA8FFF7DDFD059B0370D8F80000584544
:1036700004D0D8F80810013102F002FC206850454F
:1036800003D0A168013102F0FBFB2E4B3198289347
:103690002A4BB042269303F11403379303D0339996
:1036A000013102F0EDFB264B2FA8289307F04EF9CD
:1036B000002255F80C3C03996B442695C3F89810EA
:1036C0001D4B37A82792379313F012FF06E7002C03
:1036D0003FF4E6AE08A817E101203A681A49FCF762
:1036E00045FFD8F800005845C3D1C7E7002C40F08B
:1036F0002981334600244CE75A46414631A81FF041
:10370000FFFDD8F80030319033932246514642F005
:10371000EFFED8F80040319B23443AE705900AF0C9
:1037200061FF0598094A03689B69934240F0F48061
:103730000A226CE760590510BC5105107C59051030
:10374000D45905100059051008190510F90A001080
:10375000219B002B00F0C980002429931F9B2AADD8
:10376000279322AB93E80300049B85E803001EA97E
:1037700026A81E68269428942C94FDF7B1FB049B80
:1037800020201B68C8E90044C8E902442D9302F0D8
:103790006FFBDDE9262EDDE928C103460DF1B009F6
:1037A00000F1100A4A45C0E9002EC160C0F808C007
:1037B00095E803008AE803009C6100F0B180BCF149
:1037C000000F09D0DCF8201003F10800B1FBFEF473
:1037D0000EFB141142F8210000220121CDE92B2219
:1037E000CDE928222D9AC8F80030DA615A4B27918A
:1037F000C8F80C30594B3046C8F808304146CDF86F
:103800009890FDF7DFF9D8F808301BB10322414644
:1038100040469847289D85B12C46606804F10C030A
:1038200098422D6803D0E168013102F029FB242180
:10383000204602F025FB002DEED1279A0021269884
:1038400092003FF073FDDDE9260100234845CDE9F4
:10385000283302D0890002F013FB0220069A404967
:10386000FCF784FE209D85B12C46606804F10C03B2
:1038700098422D6803D0E168013102F001FB242158
:10388000204602F0FDFA002DEED11F9A00211E986D
:1038900092003FF04BFDDDE91E010023CDE920330E
:1038A00024AB984202D0890002F0EAFA38680EABE5
:1038B000984203D0B968013102F0E2FA069808ABE9
:1038C000984203D00899013102F0DAFA5BB0BDE802
:1038D000F08F0120D8F800202249FCF747FE00E7CE
:1038E000002C3FF406AF30460FE70120069A1E4930
:1038F000FCF73CFEB6E70022414606A81FF000FD9B
:10390000D8F80030069008932246294642F0F0FD90
:10391000D8F80040069AC4E50A219847024676E6A0
:103920002C9A9A6103F118021A6048E70120226874
:103930000E49FCF71BFED4E609F12C0126A81FF066
:1039400035FD91E50A4813F091FB234609490A48E1
:1039500013F0ECFB13F07AFBBD18001035100010CB
:10396000681A051090190510841A05101C19051005
:10397000F4170510B8180510D0180510FFF756BD3C
:103980002DE9F043044685B00C980D460090914611
:103990001F466268E36802A804F1100113F096FC68
:1039A0009DF80830A3B92668C7F82C9056F8253042
:1039B00006EB8502002B4BD01B683B6056F8253088
:1039C0001F603846E3680133E36005B0BDE8F0836B
:1039D000DDF80C80B8F1010F58D0B8F1005F5BD270
:1039E0004FEA8805284602F043FA00212A46064697
:1039F0003FF09CFC04F1180E0021A26804F10800BD
:103A0000A16082B11546EB6A1268B3FBF8FC08FBB3
:103A10001C3C56F82C3063B31B682B6056F82C30D6
:103A20001D60002AEED1D4E90001704502D0890062
:103A300002F026FAB9FBF8F508FB159556F8253083
:103A4000C4E9006806EB8502C7F82C90002BB3D1BF
:103A5000A3683B60A7603B683BB1DB6A6168B3FB6E
:103A6000F1F001FB103346F8237004F108031360F2
:103A7000A7E7A3682B60A56046F82C002B680BB164
:103A800046F821506146002ABCD1CCE7A646002367
:103A90004EF8183F7646AFE7B8F1804F01D313F0E8
:103AA000C5FA13F0B3FA00BF2DE9F0478946804606
:103AB0003A4A4968D9F8000084B006F017FCD8F8F3
:103AC0000440D8F80030B0FBF4F604FB160653F8B7
:103AD000267005463FB3D7F800A0DAF82C300BE08B
:103AE000DAF80020FAB1D36A5746B3FBF4FC04FBC2
:103AF0001C3C664517D192469D42F1D1D9F804206D
:103B0000DAF808309A42EBD13AB1DAF80410D9F871
:103B100000003FF05FFB0028E2D1386818B11C308C
:103B200004B0BDE8F087302002F0A2F9D9E900978F
:103B30000446002200F10C0C0F2F40F8042B0397D1
:103B4000C4F804C016D8012F24D0D7B900232A46C0
:103B50000125A76031460CF807304046C4E9073319
:103B6000C4E9093323460095FFF70AFF1C3004B06F
:103B7000BDE8F08703A91FF0C3FB8446039B606088
:103B8000E3603A466046494642F0B2FC039FD4F8EF
:103B900004C0DBE799F800302373D7E707690FC744
:103BA0002DE9F04F0546C9B008AE30462946FDF76D
:103BB0009BFA7368002B00F0D4804FF0000A10AB22
:103BC00025A80E93CDF83CA08DF840A013F054FC2E
:103BD000A24BCDE943AAD3E90172CDE945AAA04B96
:103BE000ADF808A1259357F80C3CCDF804A16B441F
:103BF00014971A65CDF854A057F80C0C14ABDFF8E5
:103C00007C8218445146029213F020FC08F1140300
:103C10002593944B1DA8CDE9163ACDE918AACDE914
:103C20001AAACDF85080CDF870A01EF01BFD8E4B67
:103C30000DF18409169333687468CDF878A0019368
:103C4000CDF87C90C3B10F2C0DF11C0BCBF80040CC
:103C500040F29980524659461FA81FF051FBDBF8ED
:103C600000301F9021932246019942F041FCDBF87D
:103C700000401F9A224404E0002C40F0E9804A46AC
:103C8000002400232094137008221F991E9216A866
:103C90001A461FF07DF916A925A813F0D7FB0EA927
:103CA00014A806F07BFBDDE90E4304EB030AA245F2
:103CB00007D020783EF034FC04F8010B5445F8D1CD
:103CC0000E9C2B6D05F14402142B019263D8EB6C12
:103CD000002B00F0AF800F9D002D50D0AA461D464E
:103CE00003E02D68002D00F0A580AB689A45F8D15F
:103CF0005246204669683FF06DFA0028F1D10198DC
:103D00000EA9FFF7D1FE8268002A00F0A480C368E4
:103D100014A99847554B1F982593534B4845CDF808
:103D20005080169303D02199013102F0A9F84D4B30
:103D30001DA8169306F00AFE002257F80C3C0299C3
:103D40006B4414971965464B25A82593159213F0DB
:103D5000CFFB0E9810AB984203D01099013102F0BE
:103D60008FF830680AAB984203D0B168013102F095
:103D700087F849B0BDE8F08F1B68002B5AD09A68CD
:103D8000002AF9D1BBE7012C5DD11B780DF185022A
:103D90008DF8843075E72046354A0F9906F0A6FA6B
:103DA000D5E9113BB0FBFBFC0BFB1C0C53F82CA022
:103DB0000E9CBAF1000F3DD0DAF800500F9AEB6A72
:103DC00072B3194603972346074664460BE02868FA
:103DD000002835D0C16AAA46B1FBFBF50BFB1515CF
:103DE000AC422DD105468F42F1D1A9688A42EED16D
:103DF00018466968059204933FF0ECF9DDE9043256
:103E00000028E4D11C46039F0FE02A6892B1D36AD0
:103E1000AA46B3FBFBF10BFB11318C450AD11546C9
:103E20008342F2D1AB68002BEFD1DAF80030002BDF
:103E30007FF465AF224601200E49FCF797FB69E746
:103E40001C46039FF6E74846002C7FF40CAF16E7AC
:103E5000094813F00BF913F0CBF900BF60590510B6
:103E6000BC510510D4590510005905109059051082
:103E700007690FC7B01A0510F41705107C59051013
:103E80002DE9F0414FF00008074684B03846FFF7AF
:103E900087FEBC68BB69A3423CD0A368CDE900881B
:103EA000CDE90288002B41D021460222684698477E
:103EB000D4E902023B69B968CDE90202103B99429C
:103EC0008C6845D01CB103220846A047B968103160
:103ED000029BB960002B41D06846039B9847384647
:103EE000FFF75EFE3C6B54B10026E069FCF7CAFDAB
:103EF000054698B92468002CF7D1002EEFD1029B1B
:103F0000002BC6D00322694668469847BC68BB6947
:103F1000A342C2D1012001F093F8B7E7E069FCF7B2
:103F2000B5FD2468002CDAD02E46DEE73B69103B55
:103F30009C42CBD14FF40071F86801F0A1FF7B697E
:103F40005968043301F50072C7E903127B61BFE7CA
:103F5000002CEFD003220846A047EBE713F048F906
:103F60002DE9F0470F4680463A4A4968386882B0E2
:103F700006F0BCF9D8F80440D8F80030B0FBF4F6ED
:103F800004FB160653F826900546B9F1000F4FD0F2
:103F9000D9F800A0DAF82C300BE0DAF80020F2B102
:103FA000D36AD146B3FBF4FC04FB1C3C664516D136
:103FB00092469D42F1D17A68DAF808309A42ECD103
:103FC00032B1DAF8041038683FF004F90028E4D17F
:103FD000D9F8000018B11C3002B0BDE8F0873020DD
:103FE00001F046FFBA460023044640F80C3B5AF85D
:103FF000083B6060534527D06360BB68E3602A4696
:104000004FF0010C00257B68C4E90855A360C7F890
:1040100000A0E5617D603D72A562314640462346C1
:10402000CDF800C0FFF7ACFC1C3002B0BDE8F08753
:10403000302001F01DFFBA4604465AF8083B40F80C
:104040000C9B9A456060D7D17A685146013242F0A4
:104050004FFAD4E707690FC72DE9F047042300247E
:104060008CB0954A00F14408074606A9404608AEC0
:10407000089207938DF824400696FFF771FF0346D8
:10408000CDE90344029702AC94E80300CDE90001B6
:1040900093E8030084E80300DDE90001DFF840E273
:1040A000864AD3E9029C83E803006D46CDF8109060
:1040B000C3F808E0CDF814C0DA60B9F1000F03D0FE
:1040C000032221462046C8470698B04203D00899EB
:1040D000013101F0D5FE05234FF000090793784B1D
:1040E0008DF8259093E8030008908DF82410404641
:1040F00006A90696FFF734FF0346CDE90399029718
:1041000094E8030085E8030093E8030084E80300D3
:1041100095E80300DFF8CCE16A4AD3E9029C83E822
:104120000300CDF81090C3F808E0CDF814C0DA60B1
:10413000B9F1000F03D0032221462046C847069854
:10414000B04203D00899013101F09AFE07234FF0E5
:10415000000907935C4B8DF8279093E80300ADF8B6
:104160002410090C08908DF82610404606A90696E2
:10417000FFF7F6FE0346CDE90399029794E80300A2
:1041800085E8030093E8030084E8030095E8030052
:10419000DFF854E14D4AD3E9029C83E80300CDF8EF
:1041A0001090C3F808E0CDF814C0DA60B9F1000F40
:1041B00003D0032221462046C8470698B04203D0C8
:1041C0000899013101F05CFE4FF0000A4FF003093D
:1041D0003F4B06A91B684046ADF820301B0C8DF8FC
:1041E00022308DF823A00696CDF81C90FFF7B8FE7C
:1041F0000346CDE903AA029794E8030085E803008B
:1042000093E8030084E8030095E80300DFF8DCC0CE
:10421000304AD3E902AE83E80300CDF810A0C3F81A
:1042200008C0CDF814E0DA60BAF1000F03D04A46B6
:1042300021462046D0470698B04203D00899013164
:1042400001F01EFE042340464FF00008079303F1DF
:10425000A04303F14F1303F5A84306A9089306965C
:104260008DF82480FFF77CFE0346CDE90388029792
:1042700094E8030085E8030093E8030084E8030062
:1042800095E80300144F83E803009D68D968134A3A
:1042900004959F600591DA601DB1032221462046F6
:1042A000A8470698B04203D00899013101F0E8FD13
:1042B0000CB0BDE8F08700BF4D4F5645852C00106F
:1042C000C81A05101D320010D01A05107D390010D3
:1042D000D81A0510F52600109D0B0010C919001002
:1042E000FD0A0010250B00104D0B0010750B00107F
:1042F0002DE9F843044600250823C4E9025563600C
:10430000C4E90455C4E90655C4E9085525602020D0
:10431000884601F0ADFD07464FF4007027606668DF
:1043200001F0A6FD01234FF07E52013E760807EB17
:104330008609E362A36400F500732362C4F8249045
:10434000C4E90C55C4E90F55C4E91355C4E9165521
:10435000A263626547F8260004F14002D8E90057DD
:104360002361AF4204F15C03C4E90200C4E9060022
:10437000C4F81490A26263640DD004F1280855F8C3
:10438000046B3046FCF7B6FB01464046FDF750F99A
:10439000AF420660F3D12046FFF75EFE2046BDE83F
:1043A000F88300BF30B44FF0000343EC440043EC0B
:1043B000400005254FF480740B4BC20053F82010C9
:1043C00003EB800081F0400102F1804303F52033CC
:1043D00001F0C00200F5805100F540500A605D60B8
:1043E000046030BC704700BF048003400FB400B5C8
:1043F00083B0049C074803F06FFB3CB105A920463D
:10440000019103F0F5F8044803F066FB012003F086
:1044100007F900BFDC1A05109817051070B586461D
:10442000EFF3108572B6124CD4E8CF6F0120002E46
:10443000FAD1C4E8460F002EF6D1BFF35F8F4FF0DC
:10444000010CC80801F007030CFA03F31EF800C0C2
:104450001CEA030608D14CEA030C0EF800C0C4E8BD
:104460008F6F85F3108870BD1046FFF7BFFF00BF48
:10447000A34D0020F8B5EFF3108772B61C4ED6E8B6
:10448000CF5F0124002DFAD1C6E8454F002DF6D1AB
:10449000BFF35F8F9A421BD8012502E0013293429D
:1044A00022D3D40810F804E002F0070C05FA0CFC43
:1044B0001EEA0C0FF2D14EEA0C0E00F804E0104692
:1044C0000023C6E88F3F87F31088984207DBF8BDCA
:1044D0000023C6E88F3F87F310884FF0FF30002994
:1044E000F5D00698FFF782FF4FF0FF30E8E700BFF6
:1044F000A34D0020044A1078431CDBB2182B28BFC0
:1045000010231370704700BF1825002010B5054C0C
:1045100082B001461F23182200940348FFF7AAFF28
:1045200002B010BDEC1A0510B85100204FF0E02287
:10453000936843F000539360704700BF0021044B21
:1045400003F12002C3E88F1F01339342FAD1704771
:10455000984D00204FF0E0234FF08032C3F8002444
:10456000C3F80424C3F80824C3F80C24C3F81024A7
:10457000C3F81424C3F81824C3F81C24C3F8202457
:10458000C3F82424C3F82824C3F82C24C3F8302407
:10459000704700BF012300F01F029340400941B162
:1045A000800000F1604000F56140C0F88031036098
:1045B0007047024A203042F82030704700E100E0A6
:1045C0000123064A410952F8212000F01F0003FA96
:1045D00000F01040003818BF0120704700E100E0F3
:1045E00001224309034900F01F008240403341F893
:1045F0002320704700E100E0054A10309268054B27
:1046000052F82000C01A2F288CBF002001207047CC
:1046100000ED00E01C250020F8B50D46EFF31087F3
:1046200072B6124ED6E8CF2F0123002AFAD1C6E87F
:10463000423F002AF6D1BFF35F8F0D4B00F110040B
:104640009B680C4A53F82430934203D0994201D01E
:1046500000F0A4FF064B9B6843F82450BFF35F8F24
:104660000023C6E88F3F87F31088F8BDA14D0020D6
:1046700000ED00E01D0100102DE9F04F81468B4652
:10468000164683B0EFF3108372B6DFF8D0A1009323
:10469000DAE8CF1F01230029FAD1CAE8413F0029F7
:1046A000F6D1BFF35F8F664B93F90040002CC0F248
:1046B000A080644D04EB440705EB870898F80610CA
:1046C00009F110091970604BBF009B6853F829006D
:1046D0006300411B2F292FD95C49884240F0A480F8
:1046E0001C445B4B02372F44043BDB1BC3F34A03E0
:1046F0006FEAC3434FF421416FEAD34325F82410F6
:1047000005EB840463804BF60153A380FF2348F03C
:104710000100E671C4F808B0A3714B4B9B6843F8E5
:104720002900BFF35F8F0023CAE88F3F009B83F30C
:10473000108803B0BDE8F08F20F0010E9EF807103E
:10474000B1422ED84FF42143EB53414BB91C2944BD
:10475000043B04375B1A2F44AEF10401C91BC1F3BB
:104760004A043C49C3F34A030B432143A8F804100D
:104770003949A8F802304AF6AA2073465B1B5B4110
:104780005843000D88F8076088F80600C8F808B09C
:1047900048F00100CEF80010BFE7D179B1422ED920
:1047A00096469EF906C00CEB4C02BCF1000F05EBDF
:1047B0008202F2DA4BF601510EF10402A8F104076D
:1047C000BF1AC7F34A076FEAC7476FEAD7478EF8A1
:1047D000064003EB0408204C05EB8803AEF8047098
:1047E00045F82840998083F806C0DE71C3F808B008
:1047F00093E700F0D3FE124B93F9004059E772465D
:1048000032F8041F490514D44915023102EB410165
:1048100001916FF00701C91B019F491B3944C1F386
:104820004A0141F46041C9E7019300F0B7FE019BE2
:1048300056E701F5FF1101F5FF511F31E4E700BF15
:10484000615800201C25002000ED00E01D01001033
:104850004C25002000E0FFFF01488047A14D0020CB
:10486000F0B5EFF30585EDB2EFF3108C72B6264983
:10487000D1E8CF2F0123002AFAD1C1E8423F002A14
:10488000F6D1BFF35F8F214E40F0010EB4684AF6B7
:10489000AA2354F825701E4A0446A41A64416343AF
:1048A0001B0D77455BB21BD092F906409C421CD091
:1048B00092F912409C4223D092F91E409C4221D092
:1048C00092F92A409C4208BF03240FD0114A0024C9
:1048D000157813708571C1E88F4F8CF31088F0BD87
:1048E000B2680D4C42F82540F0E7002404EB440484
:1048F00002EB8402FF2494714BF601549480E5E7A7
:104900000124F3E70224F1E7A14D002000ED00E0CF
:104910001C250020615800201D01001010B5074C17
:1049200082B001460523002200940548FFF7A2FD4E
:104930000028A8BFC0F1330002B010BD081B05104D
:1049400065580020014B0B4403607047984D0020D0
:1049500070B5104C104DAC420ED2FF26236863B1E7
:10496000FFF7C8FD01462046FFF7ECFFA680BFF326
:104970005F8F0834AC42F1D370BDFFF7BBFD014639
:104980002046FFF7DFFF2671BFF35F8F0834AC428C
:10499000E4D370BD383600204036002010B5044600
:1049A000FFF7A8FD01462046FFF7CCFFFF23237148
:1049B000BFF35F8F10BD00BF10B504460120FFF7A5
:1049C000A5FD034B03442360BFF35F8F10BD00BF01
:1049D000984D0020024B0B440360BFF35F8F70477C
:1049E000984D00200D4B1A68EFF3108172B6D2E893
:1049F000CFCF0120BCF1000FF9D1C2E84C0FBCF1C0
:104A0000000FF4D1BFF35F8F00221B68C3E88F2F24
:104A100081F3108840BF00200021704740580020DB
:104A20002DE9F04F2DED028B85B0EFF30583DBB25E
:104A3000103B9A0818BF01224FF0010103F0030B4D
:104A400018BFAF4DAF4B08BFAF4D0BEB820253F811
:104A5000226001FA0BF205F541539FEDA78B0192FD
:104A60005A602FE0B3881C0440F19380B379002B87
:104A700040F0DD80B6F90820002AC0F21E8173697B
:104A800002EB420203EBC203D3E90247B7F1FF3F57
:104A900008BFB4F1FF3F0ED005EB8B01AB6A0A698A
:104AA000D21AE31A934205D301232A6A03FA0BF3BD
:104AB000134200D10C61284600F0ACFBA042B94182
:104AC000C0F2FB80B6F90830019A002B0093EA632C
:104AD000C8DBD6F8148003EB4309284608EBC90766
:104AE000D7E9024A00F096FBA04271EB0A01B9DB5C
:104AF000BAF1000FC0F2C380D7E90431834A934270
:104B000000F0ED807A88B6F9080092B242EA0040DF
:104B1000984702460B4652EA030100F0B080002B92
:104B200080F2D180B4EB020E6AEB030A38F9393017
:104B3000C7E902EA002B95DB716903EB430201EB45
:104B4000C202D2E90270BE457AEB000C4FEA430282
:104B500088DBB4462CF8083F06E003EB430001EB8A
:104B6000C0005A00D0E90270BE451A447AEB00003A
:104B700001EBC20404DB31F93230A446002BECDA3D
:104B800028F83930009BACF80030B3881C043FF59E
:104B90006DAF3369EFF3108272B6D3E8CF0F012106
:104BA0000028FAD1C3E8401F0028F6D1BFF35F8F79
:104BB0004FF6FF74B0880023316900B2B480C1E8B9
:104BC0008F3F82F310889842FFF650AF0746A94600
:104BD000746906F1080807EB470E04EBCE03D3E92E
:104BE0000250B6F90830C446002B13DBB2460097DA
:104BF00004E034F936309446002B09DB03EB43061E
:104C000004EBC602D2E90271BD4270EB0101F0DA99
:104C10005646009FACF8007034F93E7024F83E30E0
:104C2000002FD8DAB3794D46002B3FF423AF002391
:104C3000B371B6F9083006F10808581C3DD01A4681
:104C4000776903E08046591C3FF416AF03EB43013C
:104C500007EBC100B0F802C01C461CF4004F9E4692
:104C600037F93130EED0944280ED028B05D0A8F8B0
:104C70000030328927F8312034817246E3E738F872
:104C8000393033813369EFF3108272B6D3E8CF0F36
:104C900001210028FAD1C3E8401F0028F6D1BFF354
:104CA0005F8F7388316928F83930009B7380002347
:104CB000C1E88F3F82F31088D4E640BF05B0BDEC59
:104CC000028BBDE8F08F2846CDE9022300F0A2FA5E
:104CD000029A039B10EB020E43EB010A26E70846FB
:104CE0000B69029198470028C9D00299D1E90023A5
:104CF00011E700BFAFF30080FFFFFFFFFFFFFFFFE3
:104D000000800B403457002000000B40214A001067
:104D10002DE9F84F364C25692DB1BDE8F84F0A2131
:104D20003448FFF70FBEDFF8E4800321404600F06F
:104D30005FFA0326C4F80C80FFF7DCFB4FF0504C01
:104D40002D4B267003442361DCF800300F21637083
:104D5000636961801D834FF00405A3F878504FF01C
:104D60000505A3F890504FF00605A3F8A8504FF0A2
:104D700007050E214FF6FF7208274FF00A0EA3F821
:104D8000C0504FF001094FF00C0C4FF0020B4FF0E8
:104D9000090A0D204FF00B05A3F868111749A280EE
:104DA000A3F808E1A160A3F848B0A3F8F0A0A3F825
:104DB0002051A3F838C1A3F85001A3F83090A3F80C
:104DC0006060A3F8D8701A800D4B3046C8F8207088
:104DD0000C49DC60FFF720FC49463046FFF7DAFB60
:104DE000094B0A211F640348BDE8F84FFFF7AABD2D
:104DF0006425002040580020984D0020FFFF10003F
:104E000034570020214A001000200B4000000B40C6
:104E10000048704764250020F8B59DF820500446EE
:104E200017461E4635B900F0FDF9874266EB0101D1
:104E300000295CDB2169EFF3108372B6D1E8CF0F54
:104E400001220028FAD1C1E8402F0028F6D1BFF393
:104E50005F8FB4F90220656902EB4201002A4FEA34
:104E6000C10C206905EBC10139DB35F80CE0A4F871
:104E700002E04FF0000EC0E88FEF83F310884888FF
:104E8000069B0130C0F30E00012838BF01200B61E2
:104E9000079B48804B61C1E9027640EA02402369E2
:104EA000EFF3108172B6D3E8CF7F0126002FFAD13D
:104EB000C3E8476F002FF6D1BFF35F8FA38825F8B3
:104EC0000C30A2802369C3E88FEF81F310880122A0
:104ED000E368217803F501538A405A60F8BD002247
:104EE000C0E88F2F83F310884FF0FF30F8BD2846BD
:104EF000F8BD00BF0146F0B50069EFF3108772B648
:104F0000D0E8CF5F0124002DFAD1C0E8454F002D35
:104F1000F6D1BFF35F8FB1F902E04C690EEB4E0C96
:104F2000BEF1000F4FEACC05086904EBCC0C3CDB6A
:104F3000665B4E800026C0E88F6F87F31088BCF850
:104F40000200CCE902230130C0F30E00012838BF73
:104F50000120059BACF80200CCF81030069B40EA1B
:104F60000E40CCF814300B69EFF3108272B6D3E820
:104F7000CFCF0127BCF1000FF9D1C3E84C7FBCF1C2
:104F8000000FF4D1BFF35F8F8B886353A1F804E067
:104F90000B69C3E88F6F82F310880122CB68097810
:104FA00003F501538A405A60F0BD0023C0E88F3FEB
:104FB00087F310884FF0FF30F0BD00BF03464089F3
:104FC000B0EB214F37DD58690A1402EB420210B5ED
:104FD00000EBC2001C69EFF3108C72B6D4E8CFEF7F
:104FE0000122BEF1000FF9D1C4E84E2FBEF1000F2F
:104FF000F4D1BFF35F8F428889B292B28A4207D060
:1050000000221B69C3E88F2F8CF31088002010BD8D
:1050100042F4004242800121002218699971C0E8DF
:105020008F2F8CF310881C78DA68084602F501533C
:10503000A140596010BD0020704700BF4078704704
:105040002DE9F04182B0064600F0ECF84FF47A7397
:1050500004464FF0FF306FF00042E6FB0341A042F0
:1050600072EB01033ABF044615460D46A61F45F1F3
:10507000FF37B44275EB07033CBF0026374600F00C
:10508000D1F8301A67EB0101012871F1000106DA4D
:105090002046294602B0BDE8F04100F0FBB800F020
:1050A000C1F8864267EB010100290ADB0021174B9A
:1050B0003246009316483B460191FFF71BFF013033
:1050C000E6D04FF0000C134A1349536A9F4204D8AC
:1050D000906AB042DCD29F42DAD10B68EFF31080C5
:1050E00072B6D3E8CF8F5FF0010EB8F1000FF8D1A0
:1050F000C3E848EFB8F1000FF3D1BFF35F8F0B683F
:10510000C3E88FCF80F3108820BFDEE7E5490010A9
:105110006425002000000B40405800202DE9F0439A
:1051200006460D4683B0EFF30584E4B23CB12D4B47
:105130005A6AAA421CD2002003B0BDE8F0832A4F6D
:10514000D7F80C9097F80080484600F063F808F113
:10515000040859F828301B1A301A65EB01019842EF
:1051600071F1000110DB20BF1E4B5A6AAA42E2D344
:1051700014BF012400249B6AB34234BF204644F08C
:10518000010003B0BDE8F08300F04CF8864265EB07
:105190000101002914DB154B3846CDE900343246B5
:1051A0002B46FFF7A7FE011E0ADD0E4B5A6AAA42E4
:1051B00016D39B6AB34211D30B48FFF7FFFEB6E745
:1051C000084B5C6AAC42B6D3641B18BF01249B6ACF
:1051D000B34234BF204644F00100ADE7AA42EBD110
:1051E00020BFE9E700000B4064250020E5490010DE
:1051F00010B4054B054C064AA04214BF1846581C73
:105200005DF8044BFFF70AB9BC51002000800B4049
:10521000241B05100346416A0A46986A596A8A4265
:10522000FAD17047034B596A0A46986A596A914203
:10523000FAD1704700000B4030B4154A536A9C46BF
:10524000946A536A6345FAD1021959414FF0000537
:1052500028BF01250E4B5B6AB5B15A1C08BF1A4620
:1052600008D04FF0FF310A460948436A8B42FCD30D
:105270008B4207D1064902E0486A984202D1886A07
:105280009042F9D330BC70479942EDD8F0E700BFA7
:1052900000000B40074A536A9942FCD8994207D153
:1052A000044B02E05A6A914202D19A6A9042F9D8BC
:1052B000704700BF00000B4000EB400C4FEA8C0C25
:1052C0000CF1804C0CF5803CF0B51646DCF804205F
:1052D000051FB2F5803F38BF4FF48032EDB238BFC2
:1052E000CCF80420012D2AD94FF40067254C0CF589
:1052F0004052176054F82020B2B9DCF80020012D8C
:1053000082EA461202F0E0020CF5805632602AD999
:105310004FF4006144F820304FF480330CF5005214
:105320001160CCF80430F0BD6769B7FBF2FE0EF1F6
:10533000010E0EEB4E0EBEF1030EFCD2DDE701298D
:10534000D2D103240CF540521460DCF80820D207B7
:10535000FBD5DCF800200B4C82EA461202F0E0029A
:105360000CF5805632600122DCF800504D4005F00B
:105370000305356002FA01F1DCF808200A42FBD08F
:10538000C6E700BFC0510020014B53F82000704712
:10539000C051002070B4039D04682D0345EA034505
:1053A0001B4B002CB3FBF1F3B2FBF3F61FDB194AE6
:1053B000194B904214BF4FF480424FF40042174CF7
:1053C0001A6003F580531A60A36832EA0303FBD125
:1053D000212200F540530433016086601A600268A0
:1053E000002AFCDA0822C5601A6070BC70470368A6
:1053F00003F03F038B42DAD18368C3F30B03B3425C
:10540000D5D1C36803F4EE23AB42D0D1EDE700BFA2
:10541000001BB70000800540002002400000024051
:1054200030B44FF080441C4B1C60E0B11B4CA3F522
:105430004053DC611A4C40F0010044401C62596248
:1054400098624FF080454FF0E061134B1548164CC1
:105450001D60846019604AB930BC4FF00042A3F56A
:1054600080531A607047114BD861EAE74FF47A73A2
:1054700003FB02F2B2F1807F2ABF6FF07F43134635
:105480001A464FF080410A4C08482360094B42609D
:1054900030BC1960704700BF00B00D40D3C007B0EA
:1054A0002D3FF84F00A00140F3FFFF0100800D40A9
:1054B0002C56002000A00D40012300EB400080008E
:1054C00000F1804000F5841041600360704700BF28
:1054D000002370B5DB8A04460D46002242E800F244
:1054E000520254BF1021042144F2522098478646AC
:1054F0002B462246F446BDE870400A214FF48170E5
:10550000604700BF0023DB8A002242E800F252021B
:1055100001D4102118470421184700BF08B50346DD
:105520000846191E02DB1AB140F03000FFF7D0FF29
:1055300040F02000FAE700BF034AD2F82838002BD9
:10554000FBD0BFF35F8F704700000E400021044B7B
:10555000044ABFF35F8F43F8041B9342F9D17047AD
:105560000C080E402C080E4010B44FF48D704FF410
:105570002A64064A064B07491460D06019605368D4
:10558000002BFCDA5DF8044B704700BF008004403C
:1055900000A0044000B0FA00704700BF08B5014801
:1055A000FEF724FF481B051038B5054C054DAC42ED
:1055B00004D254F8043B9847AC42FAD338BD00BF3C
:1055C000F81505103816051010B40748074C084B9D
:1055D000084A094904601A608B6832EA0303FBD168
:1055E0005DF8044B704700BF002002407F3BEFEFA7
:1055F00000300240F6FFF30300000240044BDB6C76
:10560000B3F5004F03D14FF48022024BDA647047A8
:1056100000001150002011504FF0E022044BD2F84E
:10562000881D0B43C2F8883D10EE3004704700BF60
:10563000030330006FF06041044B054A1960936822
:10564000DB4333F06043FAD1704700BF00300240C3
:105650000000024010B545F25320FFF753FFBDE8AC
:10566000104003460420184710B545F25320FFF7B9
:1056700049FFBDE81040034601201847FEF75EBF12
:1056800010B5054B054C4FF488721846A16840F0E0
:105690002FFFA06010BD00BF0000002000ED00E063
:1056A000002370B52B4C82B0C4F88430FFF75CFF48
:1056B0000122294BDA63636C012BFCD10321264ABA
:1056C000244B11639C6B012CFCD10226052521463D
:1056D0000523224A22480096FFF75CFE21462B460E
:1056E000204A21480095FFF755FE0022042031464C
:1056F0001E4BFFF7E1FD2146284600221C4BFFF719
:10570000DBFD0022082011461A4BFFF7D5FD0022D1
:1057100009201146174BFFF7CFFD00220620114646
:10572000134BFFF7C9FD0022114B07201146FFF76D
:10573000C3FD0420FFF728FE00240F4BA3FB003518
:10574000AD0CE0B229460134FFF7B6FE062CF8D1C5
:1057500002B070BD0000014000300140002F6859C8
:1057600000000540008C864700800540001BB70004
:1057700080D1F008006CDC0283DE1B43C1F30A53C6
:10578000A3F2FF335A1C8C462ADB2DD0342B26DAA9
:10579000012270B502210546C3F13304C3F1130E93
:1057A000133B22FA03F302FA0EFE4EEA030EA4F1B3
:1057B000200002FA04F3C4F120065B1921FA06F670
:1057C00001FA00F001FA04F14CEB0E0C30434A42AE
:1057D00060EB400E0EEA0C0102EA030070BD704758
:1057E000002001F00041704701F0004C4CF07F5167
:1057F000002041F440117047C1F30A530A4673B3C5
:10580000A3F2FF33002B24DBC3F13403002B2ADD8A
:1058100010B501248446A3F12001C3F1200024FA2D
:1058200000F004FA03F304FA01F10143581E41F1B8
:10583000FF3400EAE27010EB0C0E04EAE27042EB77
:1058400000025B4261EB410C0EEA030002EA0C012C
:1058500010BD00294FF0000006DA044970471846D1
:1058600001F0004170477047002170470000F0BF11
:1058700086B003B451FC0804CDE9020151FC0904CF
:10588000CDE9040151EC0A04CDE9060103BCF0475F
:10589000BDE800504EEC00C4BDE800504EEC01C421
:1058A000BDE800504EEC02C400BD000000B5FFF79B
:1058B000DFFF02E010FE30F4F8D441EC100443ECBA
:1058C000112400EE010410EE010480EE200451ECDE
:1058D0001004704700B5FFF7CBFF02E010FE30F474
:1058E000F8D441EC100443EC112400EE010410EE56
:1058F000210480EE200451EC3004704700B5FFF71E
:10590000B7FF02E010FE30F4F8D410B541EC1004FB
:1059100043EC112451EC040453EC0524A0FB024C8D
:105920005FF0000EE0FB03CEE1FB02CE4CEC204426
:105930000024E1FB03E444EC30E480EE200451EC6D
:105940005004BDE81040704700B5FFF791FF02E03A
:1059500010FE30F4F8D441EC100443EC112451EC67
:105960002104A0FB01126FEA820252FB100052FBDD
:1059700012F252FB1000A0EBD07C53EC04245CFB31
:1059800013F153EC1524A1FB022001FB030053EC9F
:105990004424A2EB000050FB1CF24FEA111312EB5F
:1059A000017043EBE27140EA515020EA915020F03F
:1059B000070053EC7524A0FB023C53EC752400FB5C
:1059C00003CC01FB02CC53EC0424ACEB824C40EA48
:1059D0005C70A0F1010041EC400480EE200451EC29
:1059E0007004704700B5FFF743FF02E010FE30F48B
:1059F000F8D441EC100480EE220410EEB20470479B
:105A000000B5FFF735FF02E010FE30F4F8D440ECAB
:105A1000700400EE010410EE210480EE200451EC2D
:105A20003004704700B5FFF723FF02E010FE30F4AA
:105A3000F8D440EC600400EE010410EE210480EE86
:105A4000200451EC3004704700B5FFF711FF02E06D
:105A500010FE30F4F8D441EC800400EE010410EEA6
:105A6000010480EE400410EE1304704700B5FFF708
:105A7000FFFE02E010FE30F4F8D441EC800400EEAA
:105A8000010410EE010480EE400410EE3304704770
:105A900000B5FFF7EDFE02E010FE30F4F8D441EC63
:105AA000100443EC112400EE010410EE3004C0F3A6
:105AB0000070704700B5FFF7DBFE02E010FE30F427
:105AC000F8D441EC100443EC112400EE010410EE74
:105AD0003004C0F38070704700B5FFF7C9FE02E0E4
